:100000000C94E7010C9404020C9404020C94040276
:100010000C9404020C9404020C9404020C94040248
:100020000C9404020C9404020C9485100C9441105E
:100030000C940A1E0C9404020C9404020C94040206
:100040000C9404020C9404020C9404020C94040218
:100050000C9404020C9460110C9404020C9404029D
:100060000C9404020C9404020C9404020C940402F8
:100070000C9404020C9404020C9404020C940402E8
:100080000C9404020C9404020C9404020C940402D8
:100090000C9404020C9404020C9404020C940402C8
:1000A0000C9404020C9404020C94040229002B000A
:1000B000E000E100010000001E00140004001D002B
:1000C000E20002511F001A0016001B00E300E300CB
:1000D000200008000700060037002C002100150052
:1000E0000900190001000100220017000A000500A4
:1000F00000000153230001000000910000000100F6
:1001000024000100000090000000010025001C00F8
:100110000B00110000000100260018000D00100067
:100120003800010027000C000E0036005000E000EF
:100130002D0012000F00370052002B002302130085
:10014000330038005100010089022A002800E50030
:100150004F0000000100010001000100010000004B
:100160000100010001000100E300010001000100A5
:1001700001000100E2000100010001000100010096
:100180000100010001000100010001000100010067
:100190000100010001000100000001000100010058
:1001A000000001000000010001000100000001004A
:1001B0000000010001000100010001000000010039
:1001C0000100010001000100010001000100010027
:1001D0000100010001000100010001000100010017
:1001E0000100010001000100010001000100010007
:1001F00001000100010001000100000001000100F8
:1002000001000100010000001E021E0201000100A9
:10021000010001003402340201000100010001006C
:100220002002200201000100010001002102210240
:100230000100010001000100220222020100010070
:100240000000010024020100000001000000010084
:100250003400010000000100000001002602240219
:10026000010001000000010027023400010001002C
:100270000100010001002602010036020100010018
:100280002E002702250237020100010035022E0050
:1002900057003802010001003102010033022D0233
:1002A0000100000005010980A10185031A81002ACF
:1002B0008300160100260300950175108100C0051A
:1002C0000C0901A10185041A01002A9C02160100F3
:1002D000269C02950175108100C005010906A10147
:1002E0008505050719E029E7150025019508750121
:1002F00081020507190029EF1500250195F0750108
:1003000081020508190129059505750191029501DC
:1003100075039101C005010906A101050719E0292E
:10032000E715002501950875018102950175088181
:10033000010507190029FF150026FF00950675081D
:10034000810005081901290595057501910295019E
:1003500075039101C009023B00020100A0FA0904E3
:1003600000000103010100092111010001224000E8
:100370000705810308000A090401000103000000C9
:100380000921110100012271000705820320000AE2
:100390001201100100000008EDFE07130100010228
:1003A00003010403300000001603450072006700DB
:1003B0006F0064006F007800200045005A000000C4
:1003C00008035A00530041000000040309041124EB
:1003D0001FBECFEFDAE0DEBFCDBF11E0A0E0B1E09D
:1003E000E8E4F1E402C005900D92AC3BB107D9F707
:1003F00022E0ACEBB1E001C01D92A83EB207E1F7EC
:100400000E94521C0C9477200C940000E8EDF0E060
:1004100080818E7F80831092E2001092DA00109229
:10042000E100A0EEB0E08C9181608C9380818F77A9
:10043000808319BCA7EDB0E08C918E7F8C93808176
:100440008F7E80831092B50208952091E400309150
:10045000E50095E6A9012091EC00822F817020FF34
:1004600006C08091E80080FF06C080E008952091DA
:10047000E80022FD1AC08091DA02882389F08530D5
:1004800089F08091EB0085FD0FC02091E400309150
:10049000E50042175307F9F29150E1F684E0089520
:1004A00082E0089583E0089581E00895EF92FF923D
:1004B0000F931F93CF937C018B010E942502C82FBD
:1004C000811117C08091E80085FD0BC08091E80084
:1004D0008E778093E8000E942502882399F3C82F25
:1004E00008C0F70181917F018093F100015011094B
:1004F00049F78C2FCF911F910F91FF90EF900895A6
:100500008091DC0287FF13C08091E80082FF06C063
:100510008091E8008B778093E80004C08091DA0234
:100520008111F2CF08958091DA028823D9F3809166
:10053000E80080FFF8CF8091E8008E77ECCF982F0D
:100540009093E900242F762F50E0891731F07091B5
:10055000EC002091ED005091F00021FD07C09F5F5D
:10056000973071F78093E90081E008953091EB00B6
:100570003E7F3093EB003091ED003D7F3093ED00F6
:100580003091EB0031603093EB007093EC002093DE
:10059000ED005093F0002091EE0027FDE0CF80E0C9
:1005A0000895CF92DF92EF92FF920F931F93CF9314
:1005B000DF93C8EDD0E088818F7E8883E7EDF0E09F
:1005C00080818160808384E082BF81E08093B50276
:1005D00088818E7F888302EE10E0F80110821092ED
:1005E000DA0081EEC82ED12CF601108288818F7737
:1005F000888388818068888388818F7D888319BCFF
:100600001092DA021092DB021092D9021092D802F4
:1006100090EEE92EF12CF70180818B7F8083888119
:100620008160888342E060E080E00E949F02F601E2
:1006300080818E7F8083F8018081816080838081CA
:1006400088608083F70180818E7F808388818061CC
:100650008883DF91CF911F910F91FF90EF90DF90F2
:10066000CF900895FC018091E2029091E3028617F9
:100670009707A0F06115710529F49091E8009E7725
:100680009093E80090E06115710551F4911108C054
:100690008091E80082FF34C080E00895BC01F2CF71
:1006A0008091DA028823C1F18530C1F18091E800A0
:1006B00083FD30C08091E80082FDEACF8091E800A0
:1006C00080FFE1CF8091F3002091F200382F611577
:1006D000710519F02830310558F091E028303105C6
:1006E00009F090E02091E8002E772093E800CBCF2E
:1006F00081918093F100615071092F5F3F4FE7CFE7
:100700008091DA02882341F0853041F08091E80041
:1007100083FFBECF81E0089582E0089583E00895CD
:1007200008958091B702089580917002811110920E
:100730007002089580916F0290916E02892B9091C2
:100740006D02892B8093BC01909170029923A1F0D6
:10075000892B8093BC0180911201882341F1809103
:10076000920287FF24C08EE1EEEBF1E090E0815031
:1007700000F591110E949403E0919402F09195028A
:100780003097E1F080911201882359F08091920214
:1007900087FF07C08091BC018093BD0185E08093F5
:1007A000BC010280F381E02D8CEB91E0099486E09E
:1007B000DBCF21912223D9F29F5FD9CF0895909169
:1007C00012019923D1F09091920297FF16C0E82F61
:1007D000E695E695E695EE31E0F4F0E0E454FE4F60
:1007E000282F277081E090E001C0880F2A95EAF752
:1007F00080959281892382830895EEEBF1E09191B7
:10080000891303C0DF0111971C9291E0E43CF907C2
:10081000B1F70895909112019923C1F0909192023D
:1008200097FF14C0E82FE695E695E695EE31F8F4CB
:10083000F0E0E454FE4F877021E030E001C0220F69
:100840008A95EAF78281822B82830895AEEBB1E02C
:10085000EFEF90E02D91821751F0EF3F19F4211145
:1008600001C0E92F9F5F9630A9F7EF3F09F4089583
:100870000E2E000CFF0BE454FE4FE6CFE92FEE0FD7
:10088000E90FEE0F8E0F982F9770869586958695B7
:1008900025E0829FF0011124EF5CFD4F50E040E025
:1008A00080E0219130E0092E02C0369527950A9408
:1008B000E2F721703327042E01C0220F0A94EAF7D1
:1008C000822B4F5F5F4F4530510559F70895E92F4F
:1008D000EE0FE90FEE0F8E0F982F977041E001C0D9
:1008E000440F9A95EAF786958695869595E0899FB7
:1008F000F0011124EF5CFD4F30E020E070E05191F9
:10090000DF011197CB01022E02C0969587950A94BC
:10091000E2F7817081958527842385278C932F5F4B
:100920003F4F2530310559F708958091300290915D
:10093000FF01981301C008958F5F8770FACF882355
:1009400041F0809590916E02892380936E020C9401
:100950009A030895882339F090916E02982B909312
:100960006E020C949A030895882341F0809590912B
:100970006F02892380936F020C949A030895882351
:1009800039F090916F02982B90936F020C949A0318
:1009900008952091E4013091E5012817390771F09D
:1009A0009093E5018093E401E0919402F091950227
:1009B000309721F00084F185E02D0994089520916D
:1009C000E2013091E3012817390771F09093E301B8
:1009D0008093E201E0919402F0919502309721F02A
:1009E0000680F781E02D0994089510926E0210920E
:1009F0006D020E949A0390E080E00E94DF0490E084
:100A000080E00C94C9046093710270937202809329
:100A10007302909374020C94F504E0919402F091A7
:100A20009502309721F00190F081E02D099480E04B
:100A30000895882309F452C0823871F40E940D058C
:100A400081FF4CC089E30E940A040E949A0389E353
:100A50000E94DF030C949A03833859F40E940D0519
:100A600080FF3CC083E50E940A040E949A0383E54C
:100A7000EFCF843859F40E940D0582FF2FC087E420
:100A80000E940A040E949A0387E4E2CF9CEF980F29
:100A9000913AF0F290E2980F983088F4877021E054
:100AA00030E0A90102C0440F551F8A95E2F7CA0140
:100AB000809590916F02892380936F02CBCF9BE545
:100AC000980F933020F490E080E00C94DF04885A73
:100AD000873120F490E080E00C94C904089590914F
:100AE000920292FF06C0282F28712830F9F4877FE0
:100AF000846093FF06C0282F28712831F1F4877E87
:100B000084612091930220FF06C0382F387138305D
:100B1000D9F4877F816021FF06C0282F28712831F2
:100B2000D1F4877E816194FD877E0895282F2471FA
:100B30002430F9F68B7F8860DCCF282F2471243194
:100B400001F78B7E8861DDCF382F3171313019F795
:100B50008E7F8860E0CF282F2171213121F78E7E92
:100B60008861E1CFCF93DF93972F70E026E0929FCB
:100B7000600D711D1124FB0134E5839FE00DF11D13
:100B80001124EE0FFF1FE455FF4FC591D491CE0104
:100B9000C238D105B9F1E8F5C133D10509F499C0DE
:100BA00050F5C932D10509F48DC0CA32D10509F416
:100BB00097C0C11540E5D40708F0C3C0C11550E483
:100BC000D50708F0C2C1C83ED10508F0A2C0C13E99
:100BD000D10568F5C83AD10508F089C0C53AD105F4
:100BE00008F00FC1C130D10511F1209709F443C0BD
:100BF0002497E8F440C0C533D10509F45CC0C9337B
:100C0000D105B9F620919202237089F080EE90E030
:100C10000EC0C33ED10591F168F4C03ED105F9F094
:100C2000C23ED10531F62091920222FD20C0DF9113
:100C3000CF910895C63ED10561F1C73ED10581F13E
:100C4000C43ED10509F0B5CF2091930221FFEFCF2B
:100C50008091920284FD0FC087EE90E0E8CF209152
:100C6000920220FDC2C13091930230FFE0CF83EEAB
:100C700090E024FFDCCF90E080E0D9CF2091920279
:100C800022FDB6C13091930230FDC0CF24FFCFCFFB
:100C9000F2CF2091920223FFCACF24FDECCFDCCF0C
:100CA0002091920223FDA7C13091930231FFEECF34
:100CB00084EE90E0BCCF2091920225FFB8CF89E26C
:100CC00090E0B5CF2091920225FFB1CF85E390E06F
:100CD000AECF2091920226FFAACF8AE290E0A7CF62
:100CE0002091920226FFA3CF81E390E0A0CFCF3BDB
:100CF000D10508F495C0FE01E05CF109E032F10590
:100D000008F0B9CFEE0FFF1FE455FF4F8591949186
:100D10008ECFC11520E2D20760F4C11531E0D307B0
:100D200008F085CFCE019065C03FD10508F07FCF98
:100D3000A2CFC11540E3D40708F0FFC0FE01FF7049
:100D4000E1CFC11555E5D50748F5C11584E5D807AC
:100D500008F02CC1C11592E5D90750F4C11521E561
:100D6000D20708F4F6C09C2F8827816F906A5FCF66
:100D70009C2F96959695AE0143705527C115D34586
:100D800008F005C121E030E002C0220F331F4A9570
:100D9000E2F750E2959FC0011124F5C0C1154AE564
:100DA000D407A0F4C11559E5D50708F00EC1C11547
:100DB00086E5D80708F4FFC0C11598E5D90708F4FF
:100DC0005ACF9C2F8827806F906A31CFC1152BE5B1
:100DD000D20708F450CFCE01C1153CE5D30708F483
:100DE00001C190568115904208F045CF8D2F8F712B
:100DF0000E946F0590E0982F882788279F718C2B81
:100E0000E2C081E890E4C53AD10509F410CF82E848
:100E100090E4C63AD10509F40ACF83E890E407CFFD
:100E200082EE94E4C83AD10509F401CF89EE94E446
:100E3000C93AD10509F4FBCE8AEE94E4CA3AD10549
:100E400009F4F5CE85EB94E4CB3AD10509F4EFCE65
:100E500086EB94E4CC3AD10509F4E9CE83EB94E433
:100E6000CB3BD10509F4E3CE84EB94E4CC3BD10534
:100E700009F4DDCE87EB94E4CD3AD10509F4D7CE61
:100E80008CEC94E4C03BD10509F4D1CE8DEC94E414
:100E9000CE3AD10509F4CBCE83E895E4CF3AD1051B
:100EA00009F4C5CE8AE895E4C13BD10509F4BFCE6B
:100EB00082E995E4C23BD10509F4B9CE84E995E411
:100EC000C33BD10509F4B3CE81E296E4C43BD1051E
:100ED00009F4ADCE83E296E4C53BD10509F4A7CE73
:100EE00084E296E4C63BD10509F4A1CE85E296E4FE
:100EF000C73BD10509F49BCE86E296E4C83BD105F9
:100F000009F495CE87E296E4C93BD10509F48FCE6A
:100F10008FE694E4CD3BD10509F489CE80E794E4D3
:100F2000CE3BD10509F483CE80E094E4CA3BD105E1
:100F300009F07DCE8AE296E47ACECE019927D3FFDE
:100F400002C0986C74CE906C72CECE019F70906A85
:100F50006ECE9E01E4E036952795EA95E1F7237081
:100F60008C2F86958695837050E2859FC001112451
:100F7000AC01522B9A01C37081E090E002C0880F4F
:100F8000991FCA95E2F7822B932B9C6850CE21E0E3
:100F900030E002C0220F331F4A95E2F740E2949FEF
:100FA000C0011124822B932B9A6841CE9C2F882755
:100FB000846F906A3CCE8C2F0E946F0590E0982F32
:100FC000882788279F71906232CE8C2F8F700E9465
:100FD0006F0534E0D695C7953A95E1F7CF709C2F11
:100FE000906925CE9927906622CE89E390E01FCEA6
:100FF00082EE90E01CCE86EE90E019CEBF92CF92AA
:10100000DF92EF92FF920F931F93CF93DF938C01A8
:10101000C0906802D0906902E0906A02F0906B0282
:101020008091710290917202A0917302B09174024A
:10103000C82AD92AEA2AFB2ACFE1D0E0BC2ED70160
:10104000C6010C2E04C0B695A795979587950A946E
:10105000D2F780FD0EC0219788F7B12C8B2DDF9140
:10106000CF911F910F91FF90EF90DF90CF90BF90A5
:101070000895B8018C2F0E94B205019761F3EECF5D
:10108000CF93DF93EC010E94FE07BE01DF91CF9169
:101090000C94B2050E944008292F2F7092959F70E2
:1010A00092509E3078F4E92FF0E0E758FF4D0C9411
:1010B000FE1E803F19F020F4883E20F481E0089560
:1010C000843FE1F380E00895883EC0F3813FD1F78B
:1010D000F5CF822F869586958695089527982F9827
:1010E000089526982E98089525982D980895569835
:1010F0005E980895279A2F9A0895269A2E9A089511
:10110000259A2D9A0895CF92DF92EF92FF92CF9376
:101110006B017C01C701AA27BB27C0E10097A1058D
:10112000B10519F4D701CB01C0E0492F5A2F6B2F1D
:101130007727411551056105710519F0C85FDB017D
:10114000CA01AC01BD01E4E07695679557954795D6
:10115000EA95D1F7411551056105710519F0CC5F8C
:10116000DB01CA01AC01BD0132E076956795579568
:1011700047953A95D1F7411551056105710519F06B
:10118000CE5FDB01CA01B695A79597958795892B08
:101190008A2B8B2B09F0CF5F0E9477080E9474087E
:1011A0000E9471080E946E08C150C73040F4EC2FB5
:1011B000F0E0E957FF4D0C94FE1E0E948008C70125
:1011C000B601CF91FF90EF90DF90CF9008950E94ED
:1011D00080080E947D08F3CF0E9480080E947A0850
:1011E000EECF0E9480080E947D08F8CF0E948308FD
:1011F000609368027093690280936A0290936B0215
:101200000C94F5040F931F9341E050E060E070E010
:1012100004C0440F551F661F771F8A95D2F7CB0174
:10122000BA01609570958095909500916802109133
:10123000690220916A0230916B026023712382233C
:1012400093231F910F910C94F60890916C02809556
:10125000892380936C02282F277071F4282F082E81
:10126000000C330B9217130639F0859585958595FB
:101270000E94020910926C0208950F931F9341E09F
:1012800050E060E070E004C0440F551F661F771FF8
:101290008A95D2F78091680290916902A0916A02C2
:1012A000B0916B028A019B01082B192B2A2B3B2B37
:1012B000C901B8011F910F910C94F60884B1807F89
:1012C00084B985B1807F85B98AB1837F8AB98BB1B2
:1012D000837F8BB93E984698089580B38C7080BB0D
:1012E00081B3836F81BB0895CF9384E090E00E9427
:1012F000041FC82F81E290E00E94041F982F8C2FBA
:10130000CF910895CF93DF9300D00F92CDB7DEB782
:101310009C0190917902911129C08091DA02843068
:1013200049F584E089833B832A8382E08093E90046
:101330008FEF9091E800815095FD06C095ED9A954C
:10134000F1F700008111F5CF8091E80085FF12C010
:1013500050E040E063E070E0CE0101960E9456024A
:101360008091E8008E778093E80004C09230C9F243
:101370009430B9F20F900F900F90DF91CF910895B4
:10138000CF93DF9300D00F92CDB7DEB72091DA0272
:10139000243031F523E02983805891099B838A8387
:1013A00082E08093E9008FEF9091E800815095FDF5
:1013B00006C095ED9A95F1F700008111F5CF809167
:1013C000E80085FF0DC050E040E063E070E0CE0132
:1013D00001960E9456028091E8008E778093E80083
:1013E0000F900F900F90DF91CF910895CF93DF93DF
:1013F000EC0180917902811107C08091DA0284307A
:1014000029F0DF91CF9108958230C9F780911201C0
:101410008823A1F18091920287FF30C060E282E0D0
:101420008093E9008FEF9091E800815095FD06C010
:1014300095ED9A95F1F700008111F5CF8091E800C4
:1014400085FFDFCF8091120170E050E040E0811114
:1014500004C050E040E068E070E0CE010E94560217
:101460008091E8008E778093E80080E2FE01A8EB8F
:10147000B2E001900D928A95E1F7C3CF68E081E078
:10148000CFCF882309F402C18238B9F40E940D0538
:1014900081FDFCC089E30E940A040E949A032FEF99
:1014A00081EE94E0215080409040E1F700C00000C0
:1014B00089E30E94DF030C949A038338A1F40E940D
:1014C0000D0580FDE3C083E50E940A040E949A0393
:1014D0002FEF81EE94E0215080409040E1F700C072
:1014E000000083E5E6CF8438A1F40E940D0582FD5B
:1014F000CDC087E40E940A040E949A032FEF81EE78
:1015000094E0215080409040E1F700C0000087E463
:10151000D0CF9CEF980F913A18F40E940A04CBCFD9
:1015200090E2980F983068F4877021E030E001C0B5
:10153000220F8A95EAF780916F02822B80936F02C7
:10154000BACF9BE5980F933070F4853A31F0863A24
:1015500039F083E890E00C94DF0481E890E0FBCF61
:1015600082E890E0F8CF98E5980F973108F08EC0A8
:10157000883A09F446C0893A09F446C08A3A09F41F
:1015800046C08B3A09F446C08C3A09F446C08B3BFE
:1015900009F446C08C3B09F446C08D3A09F446C0B4
:1015A000803B09F446C08E3A09F446C08F3A09F4EC
:1015B00046C0813B09F446C0823B09F446C0833BE8
:1015C00009F446C0843B09F446C0853B09F446C093
:1015D000863B09F446C0873B09F446C0883B09F4C2
:1015E00046C0893B09F446C08D3B09F446C08E3B9A
:1015F00009F446C08A3B09F446C090E080E00C94B0
:10160000C90482EE90E0FBCF89EE90E0F8CF8AEE3D
:1016100090E0F5CF85EB90E0F2CF86EB90E0EFCF56
:1016200083EB90E0ECCF84EB90E0E9CF87EB90E0A8
:10163000E6CF8CEC90E0E3CF8DEC90E0E0CF83E858
:1016400091E0DDCF8AE891E0DACF82E991E0D7CF6F
:1016500084E991E0D4CF81E292E0D1CF83E292E0BD
:10166000CECF84E292E0CBCF85E292E0C8CF86E293
:1016700092E0C5CF87E292E0C2CF8FE690E0BFCF85
:1016800080E790E0BCCF8AE292E0B9CF0895CF9393
:10169000C82F0E94410AC93349F42FEF87EE93E027
:1016A000215080409040E1F700C000008C2FCF9186
:1016B0000C941905EF92FF920F931F93CF93DF9332
:1016C0000E9477080E9474080E9471080E946E08A8
:1016D00088E8E82EF12C8FEF90E0F701918380836A
:1016E0000AE810E0F80191838083CCE8D0E0998388
:1016F00088830E948008FFEF20E782E0F1502040BD
:101700008040E1F700C000000E947D089FEFE0E705
:10171000F2E09150E040F040E1F700C000000E948C
:101720007A082FEF80E792E0215080409040E1F767
:1017300000C000000E947408EFEFF0E722E0E150E3
:10174000F0402040E1F700C000000E9471088FEFD8
:1017500090E7E2E081509040E040E1F700C00000F7
:101760000E946E08809180028770FFEF8F9FC001FA
:10177000112495958795959587959927F7019183DC
:101780008083F80191838083998388830E947708FE
:101790000E9474080E947108DF91CF911F910F91F0
:1017A000FF90EF900C946E0860917C028CE090E0CA
:1017B0000C94181F6FEE7EEF90E080E00E94361FC1
:1017C00060E082E090E00E94181F60E083E090E01B
:1017D0000E94181F109271021092720210927302EE
:1017E0001092740260E084E090E00E94181F60E0B4
:1017F00081E290E00E94181F60E085E090E00E9486
:10180000181F60E086E090E00E94181F6FEF87E0ED
:1018100090E00E94181F40E050E0BA0188E090E09C
:101820000E942A1F60E08DE090E00E94181F40E0B7
:1018300050E0BA0188E190E00E942A1F60E087E151
:1018400090E00E94181F40E050E0BA018CE190E067
:101850000E942A1F60E080E290E00E94181F109210
:10186000800210928102109282021092830284E020
:10187000806180938002409180025091810260914A
:101880008202709183028FE090E00E942A1F40E064
:1018900050E0BA0183E190E00C942A1F10926F028D
:1018A00080911201EEEBF1E0882359F080919202D1
:1018B00087FF07C08EE1DF011D928A95E9F70C943E
:1018C000F50486E0F8CF1F93CF93DF93CDB7DEB753
:1018D000AA970FB6F894DEBF0FBECDBF8CED92E095
:1018E0002091F100FC012193CF01F2E0843E9F079B
:1018F000B9F78091DD02833009F46FC0B8F481300C
:1019000009F446C0823009F4B0C08091E80083FF3A
:1019100087C28091DC029091DD029A3008F080C28B
:10192000E92FF0E0E257FF4D0C94FE1E8A3009F4D7
:101930008BC08B3009F46EC0893039F78091DC029E
:10194000813219F78091E0029091E1020297E8F666
:101950008091E800877F8093E8008091E80082FF13
:1019600037C09091F3008091F200029729F48091A2
:10197000F1008B7F813021F48091F1008093B702D8
:101980008091E8008B778093E8000E948002BDCFB1
:101990008091DC02813A09F0B8CF8091E800877F1E
:1019A0008093E8008091E0029091E102892B61F43C
:1019B00060E288EB92E070E00E9432038091E800E0
:1019C0008B778093E800A1CF60E090E080E0F3CFD8
:1019D0008091DA028111C1CF98CF8091DC02813AE7
:1019E00009F093CF8091E0029091E102892B09F0F8
:1019F0008CCF8091E800877F8093E8008091E80099
:101A000080FFFCCF809112018093F1008091E8006B
:101A10008E77B9CF8091DC02813209F076CF809148
:101A2000E0029091E102892B09F06FCF8091E800EC
:101A3000877F8093E8000E9480028091DE0280937D
:101A400012010E944E0C61CF8091DC02813209F0BC
:101A50005CCF8091E800877F8093E8000E9480023D
:101A60008091DF028093B60250CF8091DC02813AF0
:101A700009F04BCF8091E800877F8093E800809148
:101A8000E80080FFFCCF8091B602BECF803899F08D
:101A9000823809F0C5C18091E0028F70873008F06C
:101AA000BFC18093E9008091EB0085FB882780F916
:101AB0001092E90006C08091D8029091D90291114C
:101AC00082609091E800977F9093E8008093F10006
:101AD0001092F1008091E8008E779EC1882309F46E
:101AE0008CC1823009F09CC18091DE0281118FC1CE
:101AF0008091E0028F702FEF280F263008F090C100
:101B00008093E9002091EB0020FF81C1933031F4F4
:101B10008091EB0080628093EB0079C19091EB00A3
:101B200090619093EB0021E030E001C0220F8A9594
:101B3000EAF72093EA001092EA008091EB008860B7
:101B4000EACF81116DC11091DE021F778091E30011
:101B50008078812B8093E3008091E800877F8093D9
:101B6000E8000E9480028091E80080FFFCCF809115
:101B7000E30080688093E30082E0111183E08093AA
:101B8000DA024EC18058823008F04AC18091DE02EC
:101B90009091DF028C3D23E09207A1F583E08A83D8
:101BA0008AE289834FB7F894DE01139620E03EE085
:101BB00051E2E32FF0E050935700E49120FF03C07F
:101BC000E295EF703F5FEF708E2F90E0EA30C0F04B
:101BD000C7968D939D932F5F243159F74FBF809106
:101BE000E800877F8093E8006AE270E0CE0101960A
:101BF0000E9432038091E8008B778093E80010C147
:101C0000C096E7CF4091E0025091E102292F33279F
:101C10002330310509F445C078F52130310509F448
:101C20007BC08BE390E0E5E5F3E02230310509F07D
:101C3000F7C02091E800277F2093E8002091E2027E
:101C40003091E3028217930708F49C0140E02115CC
:101C5000310509F070C041116EC08091E80082FD2D
:101C6000C9CF8091DA02882329F2853019F2809158
:101C7000E80083FFF2CFBECF2132310509F440C026
:101C80002232310509F0CCC04115510509F44EC08E
:101C90004130510509F0C4C081E790E0E4EAF2E088
:101CA000C8CF992781309105D9F0009771F0823023
:101CB0009105F1F0039709F0B3C0E2EAF3E0E49193
:101CC0008E2F90E0E2EAF3E007C0EAECF3E0E49163
:101CD0008E2F90E0EAECF3E0009709F4A1C0A9CFC1
:101CE000E0ECF3E0E4918E2F90E0E0ECF3E0F4CF51
:101CF000E8EAF3E0E4918E2F90E0E8EAF3E0ECCF3D
:101D00004115510571F04130510509F089C089E054
:101D100090E0E0E8F3E08DCF82E190E0E0E9F3E0ED
:101D200088CF89E090E0E7E6F3E083CF80E490E0BD
:101D3000E5E1F3E07ECF8091DA02882309F45ACFFF
:101D4000853009F457CF8091E80083FD53CF80910F
:101D5000E80082FD82CF8091E80080FF78CF9091EB
:101D6000F3008091F2002115310519F088309105BA
:101D700050F041E0089709F040E08091E8008E774C
:101D80008093E80064CF44914093F1003196215054
:101D900031090196E8CF803809F042C08091E8000F
:101DA000877F8093E8008091DB028093F10092CEE0
:101DB000811136C01091DE02123090F58091E8005A
:101DC000877F8093E8001093DB020E94800211233A
:101DD00011F084E005C08091E30087FDFACF81E037
:101DE0008093DA0242E061EC81E00E949F0242E2CD
:101DF00061EC82E00E949F0213C08091DE0281307C
:101E000079F481E0933009F080E08093D902109258
:101E1000E9008091E800877F8093E8000E948002BB
:101E20008091E80083FF0AC08091E800877F80935B
:101E3000E8008091EB0080628093EB00AA960FB6D9
:101E4000F894DEBF0FBECDBFDF91CF911F910895F3
:101E5000CF93C82F873070F58091060190910701CC
:101E6000892B89F564E670E080E40E94371E909328
:101E7000070180930601892BD1F464E670E082E1CA
:101E80000E94931E9093070180930601892B79F499
:101E900081E090E001C0880FCA95EAF764E670E03F
:101EA00080950E94931E9093070180930601CF9125
:101EB0000C94E61E8A30B9F040F4883071F0893015
:101EC00079F0209A2898CF9108958C3091F070F095
:101ED0008D30B9F73E9A4698F6CF219A2998F3CFDC
:101EE000229A2A98F0CF239A2B98EDCF529A5A989B
:101EF000EACF539A5B98E7CF80E290E09093070196
:101F0000809306018091DF0181110EC00E94311E75
:101F100081E08093DF012FEF83ED90E3215080403B
:101F20009040E1F700C0000064E670E080E40E94A9
:101F3000371E9093070180930601892B09F04EC04C
:101F400064E670E080E00E94931E90930701809306
:101F50000601892B09F042C064E670E080E00E942F
:101F6000931E9093070180930601892BB9F564E6CF
:101F700070E08FE30E94931E909307018093060107
:101F8000892B61F50E94E61E64E670E080E40E9401
:101F9000371E9093070180930601892BF9F464E6BC
:101FA00070E08CE00E94931E9093070180930601DD
:101FB000892BA1F464E670E080E00E94931E909368
:101FC000070180930601892B49F464E670E08FE3F2
:101FD0000E94931E90930701809306010E94E61EC3
:101FE000809106010895CF93873008F040C080911A
:101FF000060190910701C0E0892B71F464E670E05E
:1020000080E40E94371E9093070180930601892B7C
:1020100031F0C0E00E94E61E8C2FCF91089564E657
:1020200070E083E10E94931E909307018093060164
:10203000892B79F764E670E081E40E94371E909363
:10204000070180930601892B21F784E690E00E9426
:10205000C21E97FF05C09093070180930601D9CF58
:10206000C82FC0951092070110920601D3CFCFB1AF
:102070008FB1869586958C73C3708C2BC82FC095B5
:10208000CBCF1F920F920FB60F9211242F933F9335
:102090004F935F936F937F938F939F93AF93BF9370
:1020A000CF93DF93EF93FF93D091E900DF7080919E
:1020B000EC00C82FC17080FDC0E81092E90080914B
:1020C000F000877F8093F00078940E94630C109258
:1020D000E9008091F00088608093F000CD2BCF70F4
:1020E000C093E900FF91EF91DF91CF91BF91AF9144
:1020F0009F918F917F916F915F914F913F912F9120
:102100000F900FBE0F901F9018951F920F920FB651
:102110000F9211242F933F934F935F936F937F936D
:102120008F939F93AF93BF93EF93FF938091E100C1
:1021300082FF09C08091E20082FF05C08091E1002A
:102140008B7F8093E1008091DA0080FF24C0809132
:10215000D80080FF20C08091DA008E7F8093DA0063
:102160008091D90080FF9FC080E189BD82E189BD57
:1021700009B400FEFDCF81E08093DA028091B502C0
:10218000811109C00E9406020E94D1028091E200E2
:1021900084608093E2008091E10080FF17C080910D
:1021A000E20080FF13C08091E2008E7F8093E20006
:1021B0008091E20080618093E2008091D80080628B
:1021C0008093D80019BC85E08093DA028091E10009
:1021D00084FF2DC08091E20084FF29C080E189BD89
:1021E00082E189BD89B5982F917080FFFBCF8091E6
:1021F000D8008F7D8093D8008091E1008F7E8093FE
:10220000E1008091E2008F7E8093E2008091E20005
:1022100081608093E2008091DB02882309F449C049
:1022200084E08093DA020E944E0C0E940D0580919A
:10223000E10083FF27C08091E20083FF23C08091EB
:10224000E100877F8093E10082E08093DA021092C0
:10225000DB028091E1008E7F8093E1008091E200BB
:102260008E7F8093E2008091E20080618093E200A3
:1022700042E060E080E00E949F028091F000886070
:102280008093F000FF91EF91BF91AF919F918F915B
:102290007F916F915F914F913F912F910F900FBE62
:1022A0000F901F90189519BC1092DA021092B50287
:1022B00072CF8091E30087FD93E09093DA02B3CF71
:1022C00078941F921FB61F9211248F939F93AF9300
:1022D000BF938091750290917602A0917702B091A0
:1022E00078020196A11DB11D80937502909376022C
:1022F000A0937702B0937802BF91AF919F918F9195
:102300001F901FBE1F9018952FB7F89480917502EB
:1023100090917602A0917702B09178022FBF089534
:10232000CF92DF92EF92FF920F931F93CF93DF93A1
:10233000C62F142F022FFC0182818823C1F06093E5
:10234000F5010E9484119093E1018093E001C77030
:1023500081E001C0880FCA95EAF7DF91CF911F9104
:102360000F91FF90EF90DF90CF900C94BF0480917D
:10237000F501861351C02091E0013091E1014FB782
:10238000F8948091750290917602A0917702B091B5
:1023900078024FBF6C017D01EE24FF24A90170E09B
:1023A00060E0821B930BC416D506E606F70608F418
:1023B0000197883C910580F5D0E2D10FC117B9F0A3
:1023C00080E28C0F883040F4C77081E001C0880F34
:1023D000CA95EAF70E94B404D83048F481E0912FFE
:1023E000977001C0880F9A95EAF70E94BF04802F6A
:1023F0000E94470BD830B8F4177081E001C0880FF5
:102400001A95EAF7DF91CF911F910F91FF90EF900E
:10241000DF90CF900C94B404C77081E001C0880FA6
:10242000CA95EAF7EFCFDF91CF911F910F91FF90FF
:10243000EF90DF90CF9008954F925F926F927F92CE
:102440008F929F92AF92BF92CF92DF92EF92FF92C4
:102450000F931F93CF93DF9300D000D00F92CDB78F
:10246000DEB76C01FC0183819481892B39F01081E6
:10247000F180812F8F218F3F09F034C60F900F908C
:102480000F900F900F90DF91CF911F910F91FF90C0
:10249000EF90DF90CF90BF90AF909F908F907F9004
:1024A0006F905F904F9008950E94FE07082F682F4D
:1024B00089819A810E946704E12FF0E026E0F29E74
:1024C000E00DF11D112434E5039FE00DF11D1124F1
:1024D000EE0FFF1FE455FF4F0591149102308DE57B
:1024E0001807F1F5F6018281882309F44EC0809126
:1024F000800291E0980F9770887F953008F4892BBF
:1025000080938002809180028770FFEF8F9FC001CF
:10251000112495958795959587959927909389008E
:102520008093880090938B0080938A0090938D0015
:1025300080938C00409180025091810260918202D0
:10254000709183028FE090E00E942A1F60916802E0
:102550007091690280916A0290916B020E948308D7
:10256000F6018281882389F0033EFCE51F0709F408
:10257000CCC008F0B6C0013E3CE5130709F4BEC06C
:10258000023E8CE5180709F4BEC017FFEBC0F60148
:102590008281882309F44DC080916F028093F401F9
:1025A00010926F0280917C02813009F4B6C08823BA
:1025B00009F4AFC0823009F4BDC0843009F4C1C051
:1025C0008FE39CE90197F1F700C000005801E894FF
:1025D000B7F84CE0E42EF12C95010E2C02C0369594
:1025E00027950A94E2F72F7087E290E031F0822F6E
:1025F00090E02A3008F0AAC04D960E94470B94E064
:10260000E91AF108ECEFEE16EFEFFE0629F78091DC
:102610007C02813009F4A0C0882309F499C082307B
:1026200009F496C0843009F49BC08091F401809332
:102630006F02F6018281882309F465C51092F501C5
:102640000631FCE51F0709F480C208F0D9C001304B
:102650003CE5130709F482C108F0ECC001151C45E4
:1026600009F43FC1F60100811181882309F49DC25C
:10267000C8010E94FE07F82E682FC8010E94670457
:10268000B8018F2D0E94B2058C01B82EF601E580AD
:10269000E2943FE0E322F280F11010926E0280910A
:1026A0006C02877079F0FF2069F080E2800F88303B
:1026B00048F082E00E94250980916C028770AA246C
:1026C000A3948111A12C912E92942FE09222FBE0F1
:1026D000F91508F4A4C2E92DF0E0E856FF4D0C947A
:1026E000FE1E043E9CE5190791F084E0053EECE5F2
:1026F0001E0709F04ACF80937C0202C010927C0230
:102700000E94D40B42CF81E0F6CF82E0F4CF83E089
:10271000F2CF82EE0E94410A53CF83E00E94AA04C6
:1027200088E10E94410A88E10E94190583E00E9425
:102730009F0446CF82EE0E94410A87E50E94470B24
:102740003FCF86EE0E94470B88E1F8CF069755CF22
:1027500082EE0E94190569CF8CE20E94470B65CF7B
:1027600088E2FBCF033FFCE51F07D9F140F5083DA8
:102770003CE5130791F1093D8CE51807F1F1073DA0
:102780009CE5190709F055CF26E241EE61EEC6013E
:102790000F900F900F900F900F90DF91CF911F919E
:1027A0000F91FF90EF90DF90CF90BF90AF909F90F0
:1027B0008F907F906F905F904F900C949011053F99
:1027C000ECE51E07B1F088F0063F2CE5120709F092
:1027D00030CF27E245EE66EEDACF27E245EE65EE32
:1027E000D6CF26E241EE60EED2CF27E245EE64EE90
:1027F000CECF26E241EE62EECACF28E241E0EFCF33
:102800000E3DFCE51F0709F4B2C068F40C3D3CE541
:10281000130709F4C3C00D3D1C4509F023CF82E026
:10282000809379022BCE98012A5F3C4527303105F1
:1028300008F018CF882309F415CF90E080E00E94BB
:10284000121F8F3E9E4F11F00E94DA0B0E947409F6
:1028500090939302809392020F30FCE51F0709F4D6
:1028600055C108F0CDC008303CE5130709F434C168
:1028700008F0A4C004309CE5190709F41DC108F054
:1028800090C00230FCE51F0709F412C1809192024A
:10289000826003301C4509F4A3C06091920210913C
:1028A000930284E090E00E94181F612F81E290E083
:1028B0000E94181F0F900F900F900F900F90DF91B4
:1028C000CF911F910F91FF90EF90DF90CF90BF902D
:1028D000AF909F908F907F906F905F904F900C94EF
:1028E0004E0C0E944E0CEFEFF4E32CE0E150F04070
:1028F0002040E1F700C00000F89481E08093E00000
:1029000080E28093D8001092C9008FE19EE4019785
:10291000F1F700C000001DBA109268001CBC10BE88
:102920001FBA10927A0010926E0010926F001092EF
:102930007100109272001092C9001092BC0014B87D
:1029400017B81AB81DB810BA1092BC0015B818B84C
:102950001BB81EB811BA0C94003F90CD9091A602FE
:10296000892F8E7F90FF81608093A60287CD0F9084
:102970000F900F900F900F90DF91CF911F910F91BB
:10298000FF90EF90DF90CF90BF90AF909F908F908F
:102990007F906F905F904F900C94DA0B10927902B9
:1029A0006DCD80919202806106303CE51307C1F045
:1029B00008F486C080919202806212C00B309CE5C0
:1029C000190709F497C078F40930FCE51F0709F4EA
:1029D00087C0809192028C600A301C4509F05DCF5F
:1029E000809392025ACF809192028B7F0D303CE50A
:1029F0001307B1F308F482C080919202877FF0CF71
:102A00000A3F9CE5190709F45FC050F50231FCE567
:102A10001F0709F483C068F400313CE5130709F48B
:102A200079C001311C4509F038CF809192028F7B2B
:102A3000D7CF04319CE5190709F47EC008F474C0AF
:102A400005311C4509F029CF8091920282FB99271C
:102A500090F921E0922790FB82F990FB83F9C0CF97
:102A60000D3F2CE5120709F44DC070F40B3F8CE5C7
:102A7000180771F1809193028E7F0C3F1C4509F07D
:102A80000CCF8093930209CF0F3FECE51E0709F4AA
:102A90004FC060F101151D4509F0FFCE80919302F2
:102AA000982F909591708E7F892B90FB81F9E9CFBB
:102AB00080919202816094CF80919202846090CF45
:102AC0008091920288608CCF809193028160D9CFEF
:102AD000809193028260D5CF80919202806480CFF2
:102AE0000E944E0C8091920280687ACF809193026E
:102AF0008360C7CF809192028E7F72CF80919202C5
:102B00008D7F6ECF809193028D7FBBCF809192029B
:102B10008F7E66CF809192028F7D62CF0E944E0C95
:102B2000809192028F775CCF80919202837F58CF01
:102B3000809193028C7FA5CF0E944E0C90919202BF
:102B4000892F97FB87F980584BCF80916F028A7A43
:102B500091E009F490E09093F60181111AC089E2A6
:102B60000E940A040F900F900F900F900F90DF912A
:102B7000CF911F910F91FF90EF90DF90CF90BF907A
:102B8000AF909F908F907F906F905F904F900C943C
:102B90009A0385E3E5CF8091F601811104C089E2B3
:102BA0000E94DF03DFCF85E3FBCFC8010E943E0414
:102BB000F82E66CD212F2F70E22E107F19F0E294AF
:102BC00090EFE922FF20C9F0EE2069F080E2800F4B
:102BD000883010F0B1100BC080916F02E82AE092AB
:102BE0006F020E949A03802F0E94410A18C08091B0
:102BF0006E02E82AE0926E02F4CF802F0E9419053F
:102C0000EE2069F0E094005E083010F0B1103CC096
:102C100080916F02E822E0926F020E949A03292DB0
:102C20002850330B2430310510F40E940D05AA20E2
:102C300009F424CC80916C0280FD20CCF601128234
:102C40008595859585950E943D09C6010E941C12B7
:102C500080916C028595859585950F900F900F90CA
:102C60000F900F90DF91CF911F910F91FF90EF90F8
:102C7000DF90CF90BF90AF909F908F907F906F909C
:102C80005F904F900C94020980916E02E822E092CE
:102C90006E02C3CF312F3F70832E107F103219F098
:102CA000829480EF8822802FBB2041F091E0B916FA
:102CB00031F1FF2079F1EE2041F195CFFF2091F025
:102CC00090917002892F8829E11003C00E94BF04EF
:102CD000A6CFE1E0EE12FACF981709F4A0CF8093C7
:102CE00070029DCFE11006C00E949403882D0E94BF
:102CF000B40495CFF1E0EF1609F491CFF5CFFF20A2
:102D000031F021E02E1508F48ACF882DDFCFE110B5
:102D100086CFECCFEE2051F3893349F43FEF87EEB5
:102D200093E0315080409040E1F700C00000802FD8
:102D30000E94190574CF812F86958695837061F066
:102D4000813009F06CCFC8019370F11002C090E09F
:102D500080E00E94C90463CFC8019370F11002C0E3
:102D600090E080E00E94DF045ACF812F837009F049
:102D700066C0F11054CF802F829586958770880F9A
:102D8000880F602F6F70462E512C712C612C082EED
:102D900004C0440C551C661C771C0A94D2F740E012
:102DA00050E0BA0104FF0FC04FE050E060E070E077
:102DB00004C0440F551F661F771F8A95D2F74095B0
:102DC000509560957095812F869586958370823099
:102DD00019F1D8F4009171021091720220917302DE
:102DE00030917402813069F0442955296629772988
:102DF000CB01BA0160237123822393230E94030530
:102E00000ECF402A512A622A732ACB01BA016429C3
:102E1000752986299729F2CF4429552966297729CA
:102E2000009171021091720220917302309174022C
:102E3000CB01BA016027712782279327DFCF8695C0
:102E4000FF2011F0812F8170882309F4E8CE802FB4
:102E5000829586958770880F880F602F6F70462E39
:102E6000512C712C612C082E04C0440C551C661C7E
:102E7000771C0A94D2F740E050E0BA0104FF0FC07B
:102E80004FE050E060E070E004C0440F551F661F43
:102E9000771F8A95D2F74095509560957095812F50
:102EA000869586958370823019F1D8F40091680276
:102EB0001091690220916A0230916B02813069F0B1
:102EC0004429552966297729CB01BA01602371234A
:102ED000822393230E94F608A2CE402A512A622A16
:102EE000732ACB01BA016429752986299729F2CF63
:102EF00044295529662977290091680210916902B1
:102F000020916A0230916B02CB01BA0160277127D0
:102F100082279327DFCF1F70FF2029F0812F0E9487
:102F20003D09802FD3CE802F0E94B404812F0E94B0
:102F3000020975CE802FE2EFBE1609F44EC0EB15E4
:102F400078F0F0EFBF1619F121EFB21609F43DC089
:102F5000FF2009F465C0E11046CE812F8F713AC081
:102F600033EFB31609F43EC094EFB912F1CFFF204E
:102F700009F44BC01F71812F0E943D09F8E01F9F8B
:102F8000C0011124836080936C02812F23C0FF2035
:102F9000B9F0E11044CE1F7161E070E080E090E094
:102FA00004C0660F771F881F991F1A95D2F70091EA
:102FB00068021091690220916A0230916B02A6CFDB
:102FC000E1E0EE1508F42BCEE6CF812F8F71FF20C4
:102FD00009F4ADCF0E943D0922CE812F8F71FF20D1
:102FE000C9F3A5CF60E070E0CB01FF2009F472CFF8
:102FF0001F7161E070E080E090E004C0660F771F11
:10300000881F991F1A95D2F765CF81E00E94250984
:1030100021E02E1508F003CE82E00E942509FFCDA5
:10302000E1107ACE812F8F7182CFE2EFBE16D1F1FF
:10303000EB1500F1F0EFBF1649F121EFB216D1F117
:103040008091F701EE2009F441C0882341F080917E
:10305000F80191E089278093F8011092F701802F01
:10306000F110C2CD0E94190586E0F60111928A95F1
:10307000E9F7D5CD34EFB316C1F0B31688F085EF7C
:10308000B812DECFF110CBCD81E007C0FF2009F4EC
:10309000C6CD8091F80191E089278093F801BFCDDA
:1030A00081E0F826F092F801BACDF110B8CD109277
:1030B000F801B5CDFF2039F08091F701882349F35D
:1030C0001092F701ACCDEE2021F3A9CD882309F4AD
:1030D000A6CDF110A4CD8091F80191E089278093CD
:1030E000F801EECF85E0DE01119601900D928A95F0
:1030F000E1F7F601228189819A812111D5C90E94C7
:103100003E04082FD9C90631FCE51F0709F443CD59
:1031100060F401303CE5130709F4B0C908F0A2CA15
:1031200001151C4509F4AAC99DCA0E3DFCE51F07FF
:1031300009F4A4C908F096CA0C3D3CE5130709F44C
:103140009DC90D3D1C4509F499C98CCA1F93CF93A5
:10315000DF938091FE01807FC1F48091FB01882381
:10316000A1F080913002C091FF016091F90170914E
:10317000FA014091FC015091FD01D62FD723DA01CD
:10318000A095B09516E0C81304C0DF91CF911F91B0
:10319000089590E04115510511F0DF3F31F401969B
:1031A0008770F1CF2A0F3B1F17C0189FF001199F9E
:1031B000F00D1124E050FE4F21812713F0CF208124
:1031C0002613EDCF22812111EACF238134812417E8
:1031D000350740F3241B350B283C310500F72091BF
:1031E000FE012F7020612093FE0126E0289FF00150
:1031F000299FF00D1124EB5FFD4F80818F7080615E
:10320000808389EF91E00E941C12DF91CF911F9182
:103210000C949504BF92CF92DF92EF92FF920F939E
:103220001F93CF93DF93CDB7DEB761970FB6F894B6
:10323000DEBF0FBECDBF8C0185E0F801DE011D961B
:1032400001900D928A95E1F7D8012C9111963C914D
:1032500011971296EC9012978091FC019091FD01CC
:10326000009709F463C14091F9015091FA01642F6C
:1032700065236F3F09F45AC11396CD90DC90B0904E
:10328000FB01BB2009F413C1C816D906C0F1F60131
:10329000E81BF90BCF01FF24F394883C910508F05B
:1032A000F12C8091FE01982F907FFF2009F4C1C07E
:1032B00091117DC0FE2C531327C0421325C0E1108D
:1032C00023C08F7080618093FE0189EF91E00E949E
:1032D0001C128091FE01D80115968C938F2D61965A
:1032E0000FB6F894DEBF0FBECDBFDF91CF911F9117
:1032F0000F91FF90EF90DF90CF90BF900895809551
:1033000090958C0D9D1DC7CFCD2829F0822F83234A
:103310008F3F09F035C180E0B82FB170DB2E80FF00
:103320003CC0809130024091FF0156E0841315C0EB
:103330002D873E878D859E850E944008292F2295E6
:103340002F702230F0F0243018F59F70F1F0F80162
:103350009581907FD1F4D12C1EC090E0589FF00150
:10336000599FF00D1124E050FE4F6181361306C0C5
:103370006081261303C06281E6120FC00196877038
:10338000D5CF9F7011F0882331F3805E883018F319
:10339000C8010E941C12FD2CA1CFEE2009F49ECF83
:1033A0008091FE0181608093FE01F12C97CF531331
:1033B00013C0421311C0E1100FC0D80115968C93B1
:1033C000C8010E941C1286E0F801A9EFB1E001904B
:1033D0000D928A95E1F782CF2D873E878D859E8558
:1033E0000E944A08882309F1EE20F9F08091FE013D
:1033F000803270F02091F9013091FA0138872F83E3
:103400001986DB86CA868C87CE0107960E941C121D
:1034100086E0F801A9EFB1E001900D928A95E1F7FD
:103420000E94A618FF24F39459CFC8010E941C12D1
:10343000F9CF91110CC089EF91E00E941C1286E037
:10344000E9EFF1E0DF011D928A95E9F747CF5313C9
:1034500012C0421310C0E1100EC0F8018583C801EC
:103460000E941C12E9EFF1E086E0DF011D928A95CF
:10347000E9F7FB2C33CF2D873E878D859E850E94F3
:103480004A08882391F2EE2081F28091FE01803279
:1034900008F4BECF2091F9013091FA013A832983D3
:1034A0001B82DD82CC828E83CE010196AFCFC816FF
:1034B000D90640F0C81AD90AB8ECCB16D10448F0A6
:1034C000F12CBDCF809590958C0D9D1D883C91056C
:1034D000B8F7FE2CEE2009F4A8CF531316C0421300
:1034E00014C08091FE0180FD6ECF982F907F09F46B
:1034F0006ACFF8018583903F09F462CF982F907FBF
:10350000905F8F70892B85835BCF2D873E878D855C
:103510009E850E944A0881117BCF8091FE018160C7
:103520008093FE01C8010E941C12D8CEEE2009F43F
:103530007CCF2D873E878D859E850E944A08F82E78
:10354000882309F472CF86E0F801A9EFB1E0019079
:103550000D928A95E1F78091F9019091FA010E940C
:10356000400892959F70963041F48091F80191E067
:1035700089278093F8019093F7010E94A618AECE98
:1035800081E08E25C9CE1F93CF93DF93CDB7DEB7F1
:1035900067970FB6F894DEBF0FBECDBF6D8B7E8BE5
:1035A0008F8B8E899F89892BE1F0852F84238F3F14
:1035B00009F098C05FEF4FEF14C03091F80133234A
:1035C00009F44EC0E42FF0E036E0539FE00DF11D0A
:1035D0001124EE0FFF1FED5EFE4F40815181822BC3
:1035E0008C931A8A198A4B8B5C8B85E0FE0173964B
:1035F000DE011D9601900D928A95E1F786E0FE01AD
:103600003D96DE01179601900D928A95E1F7CE0165
:1036100007960E940A19811112C086E0FE013796B2
:10362000DE01119601900D928A95E1F78A859B85BE
:10363000892B29F08F81988589238F3FC9F516E062
:10364000809130029091FF01891320C067960FB6D8
:10365000F894DEBF0FBECDBFDF91CF911F910895CB
:1036600080958223BDCF96E0929FD001939FB00DAD
:103670001124A050BE4FFE01319601900D929A95F3
:10368000E1F78093FF010E949504D9CF819FC0018B
:10369000112480509E4F0E940A198823B9F280910C
:1036A000300290E001968770992780933002C8CF4E
:1036B0002091FF0130E0C901019687709927409160
:1036C00030024817190679F60E944E0C1092FF013D
:1036D0001092300286E0E9EFF1E0DF011D928A9559
:1036E000E9F7ADCF81E090E0042E01C0880F0A9485
:1036F000EAF7A52FB0E0AA51BE4F2C913D893111B8
:103700005CCF322F38235BCF8F929F92AF92BF92C4
:10371000CF92DF92EF92FF920F931F93CF93DF939D
:103720008091060190910701892B91F08091DE0133
:103730008F5F8093DE0181110BC00E947C0F90E0AF
:103740009093070180930601892B11F40E945A0B74
:1037500004E812E07801C0E0912C37E0C32ECC0ED3
:103760008C2F0E94280F8C2D0E94280F8C2F0E94D6
:10377000F30FD7019D917D01D12C891729F0FD010F
:1037800031978083DD24D3948C2D0E94F30FF701B1
:103790009681891709F466C0868381E08D29982A6D
:1037A0000E945E09CF5FC730C1F60E9484116AEFA4
:1037B00070E00E94EA1E882ED091DD01DD2309F41D
:1037C0005DC01092DD01E0917A02F0917B027F01F1
:1037D0002EE0E20EF11C40E0CBEF2AEFC22ED12CFE
:1037E00051915B3F81F0652F70E0282D392F8517AF
:1037F000D8F1261B370B2E313105E4F19F01215002
:103800003109D901CC93EE16FF0651F74093DD0143
:10381000911002C0411134C01092DC01A0917A02D3
:10382000B0917B022091DD01E7E9F2E045EA52E048
:1038300090E06191E80139918E01631751F06C912C
:103840006B3FD1F48C93BF0161507109EB01388358
:1038500021E011964E175F0761F72093DD019093E9
:10386000DC0112C080E09ACFD601A61BB70B2A0F4D
:103870003B1FC1CF4D2FC7CF91E0EBCF9110CCCFE5
:103880009091DC019111C8CF892DDF91CF911F91CB
:103890000F91FF90EF90DF90CF90BF90AF909F90EF
:1038A0008F900895CDB7DEB72A970FB6F894DEBF94
:1038B0000FBECDBF84B7877F84BF0FB6F894A8959D
:1038C00080916000886180936000109260000FBE5C
:1038D00080E8809361001092610085B7806885BFA1
:1038E00085B7806885BF0E9406020E94D102809140
:1038F000E20084608093E20078948091DA02882369
:10390000A1F01091E9001F709091EC00892F817057
:1039100090FD80E8182B1092E9008091E80083FD6B
:103920000E94630C1F701093E90082E084BD93E055
:1039300095BD9AEF97BD80936E000E947C0F90E03A
:1039400090930701809306010E945E090E946D0911
:10395000A4E8B2E0E7E9F2E011921D9222E0E53A34
:10396000F207D1F78EE090E00E944C1F80937A021C
:1039700090937B02FC010E962BEF2193E817F90739
:10398000E1F790E080E00E94121F8F3E9E4F11F001
:103990000E94DA0B8CE090E00E94041F90E0B0E0FF
:1039A000A0E080937C0290937D02A0937E02B0936E
:1039B0007F0289EA8093800089E0809381002498C7
:1039C0002C983F988AB18F7C8AB96E98479A8BB1B0
:1039D00080638BB9769A8FE090E00E940C1F609311
:1039E00080027093810280938202909383026770B9
:1039F0008FEF689FB0011124759567957595679550
:103A00007727709389006093880070938B00609390
:103A10008A0070938D0060938C000E945A0B90E096
:103A200080E00E94121F8F3E9E4F11F00E94DA0B21
:103A300082E090E00E94041F8093A6020E94740915
:103A4000909393028093920283E090E00E94041F7F
:103A5000682F70E090E080E00E94030588E091E02C
:103A60009093950280939402BB24BA94EE24E3943D
:103A7000F12C90E1792E22E1622E38E1C32ED12C77
:103A800040E4A42E8091DA02853009F44CC00E94F3
:103A9000841BE7EAF2E0A7E9B2E010E000E0702F53
:103AA0006D912191261709F48BC090E080E02627C4
:103AB00030E0982EA901082E02C0559547950A942A
:103AC000E2F740FF78C089837A83C70102C0880F7C
:103AD000991F9A94E2F74C01862F90E08821992152
:103AE00021E0892B09F420E02B830E94841181605E
:103AF000782F9D838C8349815A816B818D810E94AF
:103B0000C31AF801E955FD4F8081882680820E9402
:103B10000D059091A502891709F4B4CF0E940D05F7
:103B20008093A502AFCF8091DA02843009F1109220
:103B300096020FB6F894A895C09260000FBEA092AE
:103B4000600083B7817F846083BF83B7816083BF58
:103B50007894889583B78E7F83BF0FB6F894A89525
:103B600080916000886180936000109260000FBEB9
:103B70008091D902882309F485CF0E947C0F90E0C0
:103B800090930701809306010E945E090E946D09CF
:103B9000E7E9F2E0119282E0E53AF807D9F70E94EE
:103BA000841BE7E9F2E08191811120C092E0E53ABF
:103BB000F907C9F767CF01968630910509F079CFEB
:103BC0000F5F1F4F0E30110509F069CFBE82BF8213
:103BD00018860E9484118160782F9A8789874E8188
:103BE0005F8168858A850E94C31A91CF79BC69BCC0
:103BF00009B400FEFDCF8091D8008F7D8093D8005E
:103C00008091E00082608093E0008091E00081FD7F
:103C1000FCCF38CF1F921FB61F9211248F939F9312
:103C2000AF93BF9380919602811113C0809175026A
:103C300090917602A0917702B09178024196A11DF1
:103C4000B11D8093750290937602A0937702B09392
:103C50007802BF91AF919F918F911F901FBE1F90CF
:103C600018951092B9008CE08093B8000895EF92F7
:103C7000FF920F931F93CF93DF93182FEB011092B6
:103C8000BC0084EA8093BC000E9484117C01809176
:103C9000BC0087FF27C08091B900887F883029F059
:103CA0008091B900887F8031D9F51093BB0084E8FA
:103CB0008093BC000E9484118C018091BC0087FF1E
:103CC00024C02091B900287F90E080E02831B1F035
:103CD00081E090E0203411F490E080E091958195AE
:103CE00091090CC0CF3FDC0791F20E9484118E191C
:103CF0009F098C179D0758F28EEF9FEFDF91CF91B0
:103D00001F910F91FF90EF900895CF3FDC07A9F22C
:103D10000E948411801B910B8C179D0770F2ECCFD1
:103D20008FEF9FEFEBCF0F931F93CF93DF93EB01B9
:103D30008093BB0084E88093BC000E9484118C01B6
:103D40008091BC0087FF11C02091B900287F81E0DD
:103D500090E0283211F490E080E0919581959109EE
:103D6000DF91CF911F910F910895CF3FDC0741F371
:103D70000E948411801B910B8C179D0708F38EEF16
:103D80009FEFEECF0F931F93CF93DF93EC0184E867
:103D90008093BC000E9484118C018091BC0087FF3D
:103DA00008C08091BB0090E0DF91CF911F910F91EF
:103DB0000895CF3FDC0789F30E948411801B910B8B
:103DC0008C179D0750F38EEF9FEFEECF84E9809321
:103DD000BC000895AA1BBB1B51E107C0AA1FBB1F53
:103DE000A617B70710F0A61BB70B881F991F5A9587
:103DF000A9F780959095BC01CD010895EE0FFF1FA6
:103E00000590F491E02D0994F999FECF92BD81BD02
:103E1000F89A992780B50895A6E1B0E044E050E013
:103E20000C943E1FA8E1B0E042E050E00C943E1F2D
:103E3000262FF999FECF92BD81BDF89A019700B463
:103E4000021639F01FBA20BD0FB6F894FA9AF99A03
:103E50000FBE08950396272F0E94191F0E94181F56
:103E6000252F0E94191F242F0C94191F0196272F0C
:103E70000E94191F0C94181FDC01CB01FC01F99959
:103E8000FECF06C0F2BDE1BDF89A319600B40D92A6
:103E900041505040B8F708950F931F93CF93DF938D
:103EA0008230910510F482E090E0E091E602F0911A
:103EB000E70230E020E0B0E0A0E0309799F421156F
:103EC000310509F447C0281B390B24303105C0F5F2
:103ED0008A819B816115710571F1FB019383828356
:103EE000FE0111C040815181028113814817590799
:103EF000F8F04817590799F4109761F012960C934F
:103F0000129713961C933296CF01DF91CF911F9198
:103F10000F9108950093E6021093E702F4CF211564
:103F2000310519F04217530718F49A01BD01EF014A
:103F3000DF01F801C2CF9093E7028093E602D0CF71
:103F4000FE01E20FF31F81939193225031093983CF
:103F50002883DACF2091E4023091E502232B41F44B
:103F600020910201309103013093E5022093E40295
:103F700020910001309101012115310541F42DB747
:103F80003EB74091040150910501241B350B40912F
:103F9000E4025091E5024217530708F0B5CF241B05
:103FA000350B2817390708F4AFCFBC016E5F7F4F80
:103FB0002617370708F4A8CF640F751F7093E50222
:103FC0006093E402FA01819391939ECFCF93DF93A4
:103FD0000097E9F0FC01329713821282C091E60249
:103FE000D091E702DE0130E020E02097A1F42081AB
:103FF0003181820F931F2091E4023091E50228174E
:10400000390709F067C0F093E502E093E402DF911D
:10401000CF910895DA01AE17BF0708F040C012969D
:104020004D915C9113979D014115510599F7D90167
:104030001396FC93EE9312974D915D91A40FB51FCB
:10404000EA17FB0779F4808191810296840F951F0E
:10405000D90111969C938E938281938113969C93A0
:104060008E931297B0E0A0E08A819B810097B9F50A
:10407000FE0181919191E80FF91F8091E4029091E6
:10408000E5028E179F0719F6109761F51092E70267
:104090001092E602D093E502C093E402B8CFB38356
:1040A000A28340815181840F951FA817B90771F42D
:1040B0004E5F5F4F8D919C911197480F591F51830F
:1040C000408312968D919C919383828321153105B3
:1040D00009F0ADCFF093E702E093E60298CFDE015E
:1040E000EC01C2CF13961C921E921297D3CFF89474
:1040F000FFCF59085908620862086408620862081C
:104100006208590859086908620862086908DD08E8
:10411000E908EE08E708EC08F308F108460D6E0D13
:10412000100F6E0D100FA10DC20D100FCB0ED80E7B
:10413000DA15DA154A164A169B160F1615180F16B9
:08414000B5168B179A179A17A8
:104148000000E802200020009103F6099003C0094E
:10415800820901000D010D020D030D040D050D006E
:104168000C010C020C030C040C050C000B010B02D7
:104178000B030B040B050B000A010A020A030A04CD
:104188000A050A00090109020903090409050900C9
:1041980008010802080308040805080007010702C7
:1041A80007030704070507000601060206030604BD
:1041B80006050600050105020503050405050500B9
:1041C80004010402040304040405040003010302B7
:1041D80003030304030503000201020202030204AD
:1041E80002050200010101020103010401050100A9
:0C41F800000100020003000400050000AC
:00000001FF
